{
  "_format": "hh-sol-artifact-1",
  "contractName": "GamingNft",
  "sourceName": "contracts/GamingNft.sol",
  "abi": [
    {
      "inputs": [
        {
          "internalType": "string",
          "name": "_baseUri",
          "type": "string"
        }
      ],
      "stateMutability": "nonpayable",
      "type": "constructor"
    },
    {
      "anonymous": false,
      "inputs": [
        {
          "indexed": true,
          "internalType": "address",
          "name": "owner",
          "type": "address"
        },
        {
          "indexed": true,
          "internalType": "address",
          "name": "approved",
          "type": "address"
        },
        {
          "indexed": true,
          "internalType": "uint256",
          "name": "tokenId",
          "type": "uint256"
        }
      ],
      "name": "Approval",
      "type": "event"
    },
    {
      "anonymous": false,
      "inputs": [
        {
          "indexed": true,
          "internalType": "address",
          "name": "owner",
          "type": "address"
        },
        {
          "indexed": true,
          "internalType": "address",
          "name": "operator",
          "type": "address"
        },
        {
          "indexed": false,
          "internalType": "bool",
          "name": "approved",
          "type": "bool"
        }
      ],
      "name": "ApprovalForAll",
      "type": "event"
    },
    {
      "anonymous": false,
      "inputs": [
        {
          "indexed": true,
          "internalType": "address",
          "name": "previousOwner",
          "type": "address"
        },
        {
          "indexed": true,
          "internalType": "address",
          "name": "newOwner",
          "type": "address"
        }
      ],
      "name": "OwnershipTransferred",
      "type": "event"
    },
    {
      "anonymous": false,
      "inputs": [
        {
          "indexed": true,
          "internalType": "address",
          "name": "from",
          "type": "address"
        },
        {
          "indexed": true,
          "internalType": "address",
          "name": "to",
          "type": "address"
        },
        {
          "indexed": true,
          "internalType": "uint256",
          "name": "tokenId",
          "type": "uint256"
        }
      ],
      "name": "Transfer",
      "type": "event"
    },
    {
      "anonymous": false,
      "inputs": [
        {
          "indexed": false,
          "internalType": "uint256",
          "name": "_raritylvl",
          "type": "uint256"
        },
        {
          "indexed": false,
          "internalType": "uint256",
          "name": "_maxLimit",
          "type": "uint256"
        },
        {
          "indexed": false,
          "internalType": "uint256",
          "name": "_minLimit",
          "type": "uint256"
        }
      ],
      "name": "rarityLimit",
      "type": "event"
    },
    {
      "anonymous": false,
      "inputs": [
        {
          "indexed": false,
          "internalType": "uint256",
          "name": "_raritylvl",
          "type": "uint256"
        },
        {
          "indexed": false,
          "internalType": "uint256",
          "name": "_price",
          "type": "uint256"
        }
      ],
      "name": "rarityPrice",
      "type": "event"
    },
    {
      "inputs": [
        {
          "internalType": "uint256",
          "name": "",
          "type": "uint256"
        }
      ],
      "name": "_gameStatus",
      "outputs": [
        {
          "internalType": "uint256",
          "name": "nftId",
          "type": "uint256"
        },
        {
          "internalType": "uint256",
          "name": "timeStamp",
          "type": "uint256"
        }
      ],
      "stateMutability": "view",
      "type": "function"
    },
    {
      "inputs": [
        {
          "internalType": "uint256",
          "name": "",
          "type": "uint256"
        }
      ],
      "name": "_nftAttributes",
      "outputs": [
        {
          "internalType": "uint256",
          "name": "Health",
          "type": "uint256"
        },
        {
          "internalType": "uint256",
          "name": "Power",
          "type": "uint256"
        },
        {
          "internalType": "uint256",
          "name": "Speed",
          "type": "uint256"
        },
        {
          "internalType": "uint256",
          "name": "Regeneration",
          "type": "uint256"
        }
      ],
      "stateMutability": "view",
      "type": "function"
    },
    {
      "inputs": [
        {
          "internalType": "uint256",
          "name": "",
          "type": "uint256"
        }
      ],
      "name": "_rarities",
      "outputs": [
        {
          "internalType": "uint256",
          "name": "rarityPrice",
          "type": "uint256"
        },
        {
          "internalType": "uint256",
          "name": "maxRarityLimit",
          "type": "uint256"
        },
        {
          "internalType": "uint256",
          "name": "minRarityLimit",
          "type": "uint256"
        },
        {
          "internalType": "uint256",
          "name": "maxCharacterLimit",
          "type": "uint256"
        },
        {
          "internalType": "uint256",
          "name": "minCharacterLimit",
          "type": "uint256"
        }
      ],
      "stateMutability": "view",
      "type": "function"
    },
    {
      "inputs": [
        {
          "internalType": "address",
          "name": "to",
          "type": "address"
        },
        {
          "internalType": "uint256",
          "name": "tokenId",
          "type": "uint256"
        }
      ],
      "name": "approve",
      "outputs": [],
      "stateMutability": "nonpayable",
      "type": "function"
    },
    {
      "inputs": [
        {
          "internalType": "address",
          "name": "owner",
          "type": "address"
        }
      ],
      "name": "balanceOf",
      "outputs": [
        {
          "internalType": "uint256",
          "name": "",
          "type": "uint256"
        }
      ],
      "stateMutability": "view",
      "type": "function"
    },
    {
      "inputs": [
        {
          "internalType": "uint256",
          "name": "_nftId",
          "type": "uint256"
        }
      ],
      "name": "gameNftStatus",
      "outputs": [],
      "stateMutability": "nonpayable",
      "type": "function"
    },
    {
      "inputs": [
        {
          "internalType": "uint256",
          "name": "tokenId",
          "type": "uint256"
        }
      ],
      "name": "getApproved",
      "outputs": [
        {
          "internalType": "address",
          "name": "",
          "type": "address"
        }
      ],
      "stateMutability": "view",
      "type": "function"
    },
    {
      "inputs": [
        {
          "internalType": "address",
          "name": "owner",
          "type": "address"
        },
        {
          "internalType": "address",
          "name": "operator",
          "type": "address"
        }
      ],
      "name": "isApprovedForAll",
      "outputs": [
        {
          "internalType": "bool",
          "name": "",
          "type": "bool"
        }
      ],
      "stateMutability": "view",
      "type": "function"
    },
    {
      "inputs": [
        {
          "internalType": "address",
          "name": "_to",
          "type": "address"
        }
      ],
      "name": "mintNft",
      "outputs": [],
      "stateMutability": "nonpayable",
      "type": "function"
    },
    {
      "inputs": [
        {
          "internalType": "address",
          "name": "_to",
          "type": "address"
        },
        {
          "internalType": "uint256",
          "name": "_amount",
          "type": "uint256"
        }
      ],
      "name": "mysteryBox",
      "outputs": [],
      "stateMutability": "nonpayable",
      "type": "function"
    },
    {
      "inputs": [],
      "name": "name",
      "outputs": [
        {
          "internalType": "string",
          "name": "",
          "type": "string"
        }
      ],
      "stateMutability": "view",
      "type": "function"
    },
    {
      "inputs": [],
      "name": "nftPrice",
      "outputs": [
        {
          "internalType": "uint256",
          "name": "",
          "type": "uint256"
        }
      ],
      "stateMutability": "view",
      "type": "function"
    },
    {
      "inputs": [],
      "name": "owner",
      "outputs": [
        {
          "internalType": "address",
          "name": "",
          "type": "address"
        }
      ],
      "stateMutability": "view",
      "type": "function"
    },
    {
      "inputs": [
        {
          "internalType": "uint256",
          "name": "tokenId",
          "type": "uint256"
        }
      ],
      "name": "ownerOf",
      "outputs": [
        {
          "internalType": "address",
          "name": "",
          "type": "address"
        }
      ],
      "stateMutability": "view",
      "type": "function"
    },
    {
      "inputs": [],
      "name": "renounceOwnership",
      "outputs": [],
      "stateMutability": "nonpayable",
      "type": "function"
    },
    {
      "inputs": [
        {
          "internalType": "address",
          "name": "from",
          "type": "address"
        },
        {
          "internalType": "address",
          "name": "to",
          "type": "address"
        },
        {
          "internalType": "uint256",
          "name": "tokenId",
          "type": "uint256"
        }
      ],
      "name": "safeTransferFrom",
      "outputs": [],
      "stateMutability": "nonpayable",
      "type": "function"
    },
    {
      "inputs": [
        {
          "internalType": "address",
          "name": "from",
          "type": "address"
        },
        {
          "internalType": "address",
          "name": "to",
          "type": "address"
        },
        {
          "internalType": "uint256",
          "name": "tokenId",
          "type": "uint256"
        },
        {
          "internalType": "bytes",
          "name": "data",
          "type": "bytes"
        }
      ],
      "name": "safeTransferFrom",
      "outputs": [],
      "stateMutability": "nonpayable",
      "type": "function"
    },
    {
      "inputs": [
        {
          "internalType": "uint256",
          "name": "_raritylvl",
          "type": "uint256"
        },
        {
          "internalType": "uint256",
          "name": "newPrice",
          "type": "uint256"
        },
        {
          "internalType": "uint256",
          "name": "maxRLimit",
          "type": "uint256"
        },
        {
          "internalType": "uint256",
          "name": "minRLimit",
          "type": "uint256"
        },
        {
          "internalType": "uint256",
          "name": "_maxCLimit",
          "type": "uint256"
        },
        {
          "internalType": "uint256",
          "name": "_minCLimit",
          "type": "uint256"
        }
      ],
      "name": "set",
      "outputs": [],
      "stateMutability": "nonpayable",
      "type": "function"
    },
    {
      "inputs": [
        {
          "internalType": "address",
          "name": "operator",
          "type": "address"
        },
        {
          "internalType": "bool",
          "name": "approved",
          "type": "bool"
        }
      ],
      "name": "setApprovalForAll",
      "outputs": [],
      "stateMutability": "nonpayable",
      "type": "function"
    },
    {
      "inputs": [
        {
          "internalType": "uint256",
          "name": "_raritylvl",
          "type": "uint256"
        },
        {
          "internalType": "uint256",
          "name": "_maxLimit",
          "type": "uint256"
        },
        {
          "internalType": "uint256",
          "name": "_minLimit",
          "type": "uint256"
        }
      ],
      "name": "setCharacterLimits",
      "outputs": [],
      "stateMutability": "nonpayable",
      "type": "function"
    },
    {
      "inputs": [
        {
          "internalType": "uint256",
          "name": "_newPrice",
          "type": "uint256"
        }
      ],
      "name": "setMintPrice",
      "outputs": [],
      "stateMutability": "nonpayable",
      "type": "function"
    },
    {
      "inputs": [
        {
          "internalType": "uint256",
          "name": "_raritylvl",
          "type": "uint256"
        },
        {
          "internalType": "uint256",
          "name": "_newPrice",
          "type": "uint256"
        }
      ],
      "name": "setMysteryBoxPrice",
      "outputs": [],
      "stateMutability": "nonpayable",
      "type": "function"
    },
    {
      "inputs": [
        {
          "internalType": "uint256",
          "name": "_raritylvl",
          "type": "uint256"
        },
        {
          "internalType": "uint256",
          "name": "_maxLimit",
          "type": "uint256"
        },
        {
          "internalType": "uint256",
          "name": "_minLimit",
          "type": "uint256"
        }
      ],
      "name": "setRarityLimits",
      "outputs": [],
      "stateMutability": "nonpayable",
      "type": "function"
    },
    {
      "inputs": [
        {
          "internalType": "bytes4",
          "name": "interfaceId",
          "type": "bytes4"
        }
      ],
      "name": "supportsInterface",
      "outputs": [
        {
          "internalType": "bool",
          "name": "",
          "type": "bool"
        }
      ],
      "stateMutability": "view",
      "type": "function"
    },
    {
      "inputs": [],
      "name": "symbol",
      "outputs": [
        {
          "internalType": "string",
          "name": "",
          "type": "string"
        }
      ],
      "stateMutability": "view",
      "type": "function"
    },
    {
      "inputs": [
        {
          "internalType": "uint256",
          "name": "_nftId",
          "type": "uint256"
        }
      ],
      "name": "tokenURI",
      "outputs": [
        {
          "internalType": "string",
          "name": "",
          "type": "string"
        }
      ],
      "stateMutability": "view",
      "type": "function"
    },
    {
      "inputs": [],
      "name": "totalSupply",
      "outputs": [
        {
          "internalType": "uint256",
          "name": "",
          "type": "uint256"
        }
      ],
      "stateMutability": "view",
      "type": "function"
    },
    {
      "inputs": [
        {
          "internalType": "address",
          "name": "from",
          "type": "address"
        },
        {
          "internalType": "address",
          "name": "to",
          "type": "address"
        },
        {
          "internalType": "uint256",
          "name": "tokenId",
          "type": "uint256"
        }
      ],
      "name": "transferFrom",
      "outputs": [],
      "stateMutability": "nonpayable",
      "type": "function"
    },
    {
      "inputs": [
        {
          "internalType": "address",
          "name": "newOwner",
          "type": "address"
        }
      ],
      "name": "transferOwnership",
      "outputs": [],
      "stateMutability": "nonpayable",
      "type": "function"
    },
    {
      "inputs": [],
      "name": "withdrawGamingToken",
      "outputs": [],
      "stateMutability": "nonpayable",
      "type": "function"
    },
    {
      "inputs": [],
      "name": "withdrawMatic",
      "outputs": [],
      "stateMutability": "nonpayable",
      "type": "function"
    }
  ],
  "bytecode": "0x6080604052600880546001600160a01b0319167337095837be5e8c0f5d0244d5dd6dfd9def399d48179055600060215568056bc75e2d63100000602255604660235560126024553480156200005357600080fd5b5060405162002c5038038062002c50833981016040819052620000769162000216565b604080518082018252600b81526a47616d696e67204e66747360a81b602080830191825283518085019094526005845264474e46545360d81b908401528151919291620000c69160009162000170565b508051620000dc90600190602084019062000170565b505050620000f9620000f36200011a60201b60201c565b6200011e565b6001600755805162000112906020908184019062000170565b505062000345565b3390565b600680546001600160a01b038381166001600160a01b0319831681179093556040519116919082907f8be0079c531659141344cd1fd0a4f28419497f9722a3daafe3b4186f6b6457e090600090a35050565b8280546200017e90620002f2565b90600052602060002090601f016020900481019282620001a25760008555620001ed565b82601f10620001bd57805160ff1916838001178555620001ed565b82800160010185558215620001ed579182015b82811115620001ed578251825591602001919060010190620001d0565b50620001fb929150620001ff565b5090565b5b80821115620001fb576000815560010162000200565b600060208083850312156200022a57600080fd5b82516001600160401b03808211156200024257600080fd5b818501915085601f8301126200025757600080fd5b8151818111156200026c576200026c6200032f565b604051601f8201601f19908116603f011681019083821181831017156200029757620002976200032f565b816040528281528886848701011115620002b057600080fd5b600093505b82841015620002d45784840186015181850187015292850192620002b5565b82841115620002e65760008684830101525b98975050505050505050565b600181811c908216806200030757607f821691505b602082108114156200032957634e487b7160e01b600052602260045260246000fd5b50919050565b634e487b7160e01b600052604160045260246000fd5b6128fb80620003556000396000f3fe608060405234801561001057600080fd5b50600436106101e55760003560e01c8063715018a61161010f578063c520494f116100a2578063e9c2e14b11610071578063e9c2e14b146104a3578063f2fde38b146104b6578063f4a0a528146104c9578063f9b400d7146104dc57600080fd5b8063c520494f14610439578063c7bc49df1461044c578063c87b56dd14610454578063e985e9c51461046757600080fd5b8063a22cb465116100de578063a22cb465146103ab578063b1236a4a146103be578063b88d4fde14610413578063c1d980bd1461042657600080fd5b8063715018a614610382578063810074c61461038a5780638da5cb5b1461039257806395d89b41146103a357600080fd5b80631f21da3c1161018757806342842e0e1161015657806342842e0e146103365780636352211e146103495780636c6929421461035c57806370a082311461036f57600080fd5b80631f21da3c146102c157806323b872dd146102fd578063351207251461031057806340cb76601461032357600080fd5b8063095ea7b3116101c3578063095ea7b3146102525780630aa34cd6146102675780630d39fc81146102a257806318160ddd146102b957600080fd5b806301ffc9a7146101ea57806306fdde0314610212578063081812fc14610227575b600080fd5b6101fd6101f83660046123e7565b6104ef565b60405190151581526020015b60405180910390f35b61021a610541565b604051610209919061266c565b61023a610235366004612421565b6105d3565b6040516001600160a01b039091168152602001610209565b6102656102603660046123a0565b6105fa565b005b61027a610275366004612421565b610715565b604080519586526020860194909452928401919091526060830152608082015260a001610209565b6102ab60225481565b604051908152602001610209565b6021546102ab565b6102e86102cf366004612421565b600b602052600090815260409020805460019091015482565b60408051928352602083019190915201610209565b61026561030b366004612251565b61074a565b61026561031e3660046123a0565b61077b565b6102656103313660046124a1565b610ca2565b610265610344366004612251565b610d47565b61023a610357366004612421565b610d62565b61026561036a366004612421565b610dc2565b6102ab61037d3660046121fc565b610e10565b610265610e96565b610265610eaa565b6006546001600160a01b031661023a565b61021a610f4c565b6102656103b9366004612369565b610f5b565b6103f36103cc366004612421565b600a6020526000908152604090208054600182015460028301546003909301549192909184565b604080519485526020850193909352918301526060820152608001610209565b61026561042136600461228d565b610f6a565b610265610434366004612475565b610fa2565b610265610447366004612475565b6110a3565b61026561119b565b61021a610462366004612421565b61122b565b6101fd61047536600461221e565b6001600160a01b03918216600090815260056020908152604080832093909416825291909152205460ff1690565b6102656104b13660046121fc565b611332565b6102656104c43660046121fc565b61173f565b6102656104d7366004612421565b6117b5565b6102656104ea366004612453565b61183f565b60006001600160e01b031982166380ac58cd60e01b148061052057506001600160e01b03198216635b5e139f60e01b145b8061053b57506301ffc9a760e01b6001600160e01b03198316145b92915050565b606060008054610550906127df565b80601f016020809104026020016040519081016040528092919081815260200182805461057c906127df565b80156105c95780601f1061059e576101008083540402835291602001916105c9565b820191906000526020600020905b8154815290600101906020018083116105ac57829003601f168201915b5050505050905090565b60006105de82611908565b506000908152600460205260409020546001600160a01b031690565b600061060582610d62565b9050806001600160a01b0316836001600160a01b031614156106785760405162461bcd60e51b815260206004820152602160248201527f4552433732313a20617070726f76616c20746f2063757272656e74206f776e656044820152603960f91b60648201526084015b60405180910390fd5b336001600160a01b038216148061069457506106948133610475565b6107065760405162461bcd60e51b815260206004820152603e60248201527f4552433732313a20617070726f76652063616c6c6572206973206e6f7420746f60448201527f6b656e206f776e6572206e6f7220617070726f76656420666f7220616c6c0000606482015260840161066f565b6107108383611967565b505050565b600c816004811061072557600080fd5b6005020180546001820154600283015460038401546004909401549294509092909185565b61075433826119d5565b6107705760405162461bcd60e51b815260040161066f90612722565b610710838383611a54565b338015158061079257506001600160a01b03831615155b6107d05760405162461bcd60e51b815260206004820152600f60248201526e496e76616c6964206164647265737360881b604482015260640161066f565b60115460009083106107e457506001610802565b60165483106107f557506002610802565b601b548310610802575060035b6000600c826004811061081757610817612875565b6040805160a081018252600592830293909301805484526001810154602085015260028101548483015260038101546060850152600401546080840152805182815260c081019091529192506000919081602001602082028036833701905050905060005b600481101561093157600087610892833a612770565b4361089d8542612770565b44306040516020016108b496959493929190612634565b60408051601f1981840301815291815281516020928301209186015190860151919250906108e2908261279c565b6108ed906001612770565b6108f79083612835565b6109019190612770565b83838151811061091357610913612875565b602090810291909101015250806109298161281a565b91505061087c565b506011548510610a2e57858160038151811061094f5761094f612875565b60200260200101513a6109629190612770565b438360038151811061097657610976612875565b6020026020010151426109899190612770565b44306040516020016109a096959493929190612634565b6040516020818303038152906040528051906020012060001c816004815181106109cc576109cc612875565b6020026020010181815250506003816004815181106109ed576109ed612875565b60200260200101516109ff9190612835565b610a0a906001612770565b81600481518110610a1d57610a1d612875565b602002602001018181525050610b38565b8581600381518110610a4257610a42612875565b60200260200101513a610a559190612770565b4383600381518110610a6957610a69612875565b602002602001015142610a7c9190612770565b4430604051602001610a9396959493929190612634565b6040516020818303038152906040528051906020012060001c81600481518110610abf57610abf612875565b602090810291909101015260608201516080830151610ade908261279c565b610ae9906001612770565b82600481518110610afc57610afc612875565b6020026020010151610b0e9190612835565b610b189190612770565b81600481518110610b2b57610b2b612875565b6020026020010181815250505b80600081518110610b4b57610b4b612875565b6020026020010151600a600060215481526020019081526020016000206000018190555080600181518110610b8257610b82612875565b6020026020010151600a600060215481526020019081526020016000206001018190555080600281518110610bb957610bb9612875565b6020026020010151600a600060215481526020019081526020016000206002018190555080600381518110610bf057610bf0612875565b6020026020010151600a60006021548152602001908152602001600020600301819055506020610c3982600481518110610c2c57610c2c612875565b6020026020010151611bff565b604051602001610c4a92919061252c565b60408051601f198184030181529181526021546000908152600960209081529190208251610c7d93919290910190612147565b50602154610c8b8782611cfd565b610c96816001612770565b60215550505050505050565b610caa611d17565b84600c8760048110610cbe57610cbe612875565b600502015583600c8760048110610cd757610cd7612875565b600502016001018190555082600c8760048110610cf657610cf6612875565b600502016002018190555081600c8760048110610d1557610d15612875565b600502016003018190555080600c8760048110610d3457610d34612875565b6005020160040181905550505050505050565b61071083838360405180602001604052806000815250610f6a565b6000818152600260205260408120546001600160a01b03168061053b5760405162461bcd60e51b8152602060048201526018602482015277115490cdcc8c4e881a5b9d985b1a59081d1bdad95b88125160421b604482015260640161066f565b6000818152600260205260409020546001600160a01b0316610df65760405162461bcd60e51b815260040161066f906126d1565b6000818152600b6020526040902090815542600190910155565b60006001600160a01b038216610e7a5760405162461bcd60e51b815260206004820152602960248201527f4552433732313a2061646472657373207a65726f206973206e6f7420612076616044820152683634b21037bbb732b960b91b606482015260840161066f565b506001600160a01b031660009081526003602052604090205490565b610e9e611d17565b610ea86000611d71565b565b610eb2611d17565b6000336001600160a01b0316476040515b60006040518083038185875af1925050503d8060008114610f00576040519150601f19603f3d011682016040523d82523d6000602084013e610f05565b606091505b5050905080610f495760405162461bcd60e51b815260206004820152601060248201526f2a3930b739b332b9103330b4b632b21760811b604482015260640161066f565b50565b606060018054610550906127df565b610f66338383611dc3565b5050565b610f7433836119d5565b610f905760405162461bcd60e51b815260040161066f90612722565b610f9c84848484611e92565b50505050565b610faa611d17565b8215801590610fb95750600483105b610fd55760405162461bcd60e51b815260040161066f906126fa565b600082118015610fe55750600081115b6110215760405162461bcd60e51b815260206004820152600d60248201526c125b9d985b1a59081b1a5b5a5d609a1b604482015260640161066f565b81600c846004811061103557611035612875565b600502016001018190555080600c846004811061105457611054612875565b600502016002015560408051848152602081018490529081018290527feabfbb0342f43daf685a652d504d7e2574b43db911b82bf50e7a05142c53c667906060015b60405180910390a1505050565b6110ab611d17565b82158015906110ba5750600483105b6110d65760405162461bcd60e51b815260040161066f906126fa565b6000821180156110e65750600081115b6111225760405162461bcd60e51b815260206004820152600d60248201526c125b9d985b1a59081b1a5b5a5d609a1b604482015260640161066f565b81600c846004811061113657611136612875565b600502016003018190555080600c846004811061115557611155612875565b600502016004015560408051848152602081018490529081018290527feabfbb0342f43daf685a652d504d7e2574b43db911b82bf50e7a05142c53c66790606001611096565b6111a3611d17565b6008546040516370a0823160e01b815230600482015260009133916001600160a01b03909116906370a082319060240160206040518083038186803b1580156111eb57600080fd5b505afa1580156111ff573d6000803e3d6000fd5b505050506040513d601f19601f82011682018060405250810190611223919061243a565b604051610ec3565b6000818152600260205260409020546060906001600160a01b03166112625760405162461bcd60e51b815260040161066f906126d1565b600061126d83610d62565b6001600160a01b031614156112945760405162461bcd60e51b815260040161066f906126d1565b600082815260096020526040902080546112ad906127df565b80601f01602080910402602001604051908101604052809291908181526020018280546112d9906127df565b80156113265780601f106112fb57610100808354040283529160200191611326565b820191906000526020600020905b81548152906001019060200180831161130957829003601f168201915b50505050509050919050565b338015158061134957506001600160a01b03821615155b6113875760405162461bcd60e51b815260206004820152600f60248201526e496e76616c6964206164647265737360881b604482015260640161066f565b6008546040516370a0823160e01b81526001600160a01b038381166004830152909116906370a082319060240160206040518083038186803b1580156113cc57600080fd5b505afa1580156113e0573d6000803e3d6000fd5b505050506040513d601f19601f82011682018060405250810190611404919061243a565b602254111561144c5760405162461bcd60e51b8152602060048201526014602482015273496e73756666696369656e742062616c616e636560601b604482015260640161066f565b6008546022546040516323b872dd60e01b81526001600160a01b03858116600483015230602483015260448201929092529116906323b872dd90606401602060405180830381600087803b1580156114a357600080fd5b505af11580156114b7573d6000803e3d6000fd5b505050506040513d601f19601f820116820180604052508101906114db91906123ca565b5060408051600580825260c082019092526000916020820160a08036833701905050905060005b600581101561159357600084611518833a612770565b436115238542612770565b443060405160200161153a96959493929190612634565b6040516020818303038152906040528051906020012060001c9050602354816115639190612835565b83838151811061157557611575612875565b6020908102919091010152508061158b8161281a565b915050611502565b50600a816004815181106115a9576115a9612875565b60200260200101516115bb9190612835565b6115c6906009612770565b816004815181106115d9576115d9612875565b602002602001018181525050806000815181106115f8576115f8612875565b6020026020010151600a60006021548152602001908152602001600020600001819055508060018151811061162f5761162f612875565b6020026020010151600a60006021548152602001908152602001600020600101819055508060028151811061166657611666612875565b6020026020010151600a60006021548152602001908152602001600020600201819055508060038151811061169d5761169d612875565b6020026020010151600a600060215481526020019081526020016000206003018190555060206116d982600481518110610c2c57610c2c612875565b6040516020016116ea92919061252c565b60408051601f19818403018152918152602154600090815260096020908152919020825161171d93919290910190612147565b5060215461172b8482611cfd565b611736816001612770565b60215550505050565b611747611d17565b6001600160a01b0381166117ac5760405162461bcd60e51b815260206004820152602660248201527f4f776e61626c653a206e6577206f776e657220697320746865207a65726f206160448201526564647265737360d01b606482015260840161066f565b610f4981611d71565b6117bd611d17565b600081116117fd5760405162461bcd60e51b815260206004820152600d60248201526c496e76616c696420707269636560981b604482015260640161066f565b60228190556040805160008152602081018390527fc78f1af41c9a04032d24329a83d64744d2e91425a87044f457fee500ee86b0b9910160405180910390a150565b611847611d17565b81158015906118565750600482105b6118725760405162461bcd60e51b815260040161066f906126fa565b600081116118b25760405162461bcd60e51b815260206004820152600d60248201526c496e76616c696420707269636560981b604482015260640161066f565b80600c83600481106118c6576118c6612875565b600502015560408051838152602081018390527fc78f1af41c9a04032d24329a83d64744d2e91425a87044f457fee500ee86b0b9910160405180910390a15050565b6000818152600260205260409020546001600160a01b0316610f495760405162461bcd60e51b8152602060048201526018602482015277115490cdcc8c4e881a5b9d985b1a59081d1bdad95b88125160421b604482015260640161066f565b600081815260046020526040902080546001600160a01b0319166001600160a01b038416908117909155819061199c82610d62565b6001600160a01b03167f8c5be1e5ebec7d5bd14f71427d1e84f3dd0314c0f7b2291e5b200ac8c7c3b92560405160405180910390a45050565b6000806119e183610d62565b9050806001600160a01b0316846001600160a01b03161480611a2857506001600160a01b0380821660009081526005602090815260408083209388168352929052205460ff165b80611a4c5750836001600160a01b0316611a41846105d3565b6001600160a01b0316145b949350505050565b826001600160a01b0316611a6782610d62565b6001600160a01b031614611acb5760405162461bcd60e51b815260206004820152602560248201527f4552433732313a207472616e736665722066726f6d20696e636f72726563742060448201526437bbb732b960d91b606482015260840161066f565b6001600160a01b038216611b2d5760405162461bcd60e51b8152602060048201526024808201527f4552433732313a207472616e7366657220746f20746865207a65726f206164646044820152637265737360e01b606482015260840161066f565b600081815260046020908152604080832080546001600160a01b03191690556001600160a01b038616835260039091528120805460019290611b7090849061279c565b90915550506001600160a01b0382166000908152600360205260408120805460019290611b9e908490612770565b909155505060008181526002602052604080822080546001600160a01b0319166001600160a01b0386811691821790925591518493918716917fddf252ad1be2c89b69c2b068fc378daa952ba7f163c4a11628f55a4df523b3ef91a4505050565b606081611c235750506040805180820190915260018152600360fc1b602082015290565b8160005b8115611c4d5780611c378161281a565b9150611c469050600a83612788565b9150611c27565b60008167ffffffffffffffff811115611c6857611c6861288b565b6040519080825280601f01601f191660200182016040528015611c92576020820181803683370190505b5090505b8415611a4c57611ca760018361279c565b9150611cb4600a86612835565b611cbf906030612770565b60f81b818381518110611cd457611cd4612875565b60200101906001600160f81b031916908160001a905350611cf6600a86612788565b9450611c96565b610f66828260405180602001604052806000815250611ec5565b6006546001600160a01b03163314610ea85760405162461bcd60e51b815260206004820181905260248201527f4f776e61626c653a2063616c6c6572206973206e6f7420746865206f776e6572604482015260640161066f565b600680546001600160a01b038381166001600160a01b0319831681179093556040519116919082907f8be0079c531659141344cd1fd0a4f28419497f9722a3daafe3b4186f6b6457e090600090a35050565b816001600160a01b0316836001600160a01b03161415611e255760405162461bcd60e51b815260206004820152601960248201527f4552433732313a20617070726f766520746f2063616c6c657200000000000000604482015260640161066f565b6001600160a01b03838116600081815260056020908152604080832094871680845294825291829020805460ff191686151590811790915591519182527f17307eab39ab6107e8899845ad3d59bd9653f200f220920489ca2b5937696c31910160405180910390a3505050565b611e9d848484611a54565b611ea984848484611ef8565b610f9c5760405162461bcd60e51b815260040161066f9061267f565b611ecf8383612005565b611edc6000848484611ef8565b6107105760405162461bcd60e51b815260040161066f9061267f565b60006001600160a01b0384163b15611ffa57604051630a85bd0160e11b81526001600160a01b0385169063150b7a0290611f3c9033908990889088906004016125f7565b602060405180830381600087803b158015611f5657600080fd5b505af1925050508015611f86575060408051601f3d908101601f19168201909252611f8391810190612404565b60015b611fe0573d808015611fb4576040519150601f19603f3d011682016040523d82523d6000602084013e611fb9565b606091505b508051611fd85760405162461bcd60e51b815260040161066f9061267f565b805181602001fd5b6001600160e01b031916630a85bd0160e11b149050611a4c565b506001949350505050565b6001600160a01b03821661205b5760405162461bcd60e51b815260206004820181905260248201527f4552433732313a206d696e7420746f20746865207a65726f2061646472657373604482015260640161066f565b6000818152600260205260409020546001600160a01b0316156120c05760405162461bcd60e51b815260206004820152601c60248201527f4552433732313a20746f6b656e20616c7265616479206d696e74656400000000604482015260640161066f565b6001600160a01b03821660009081526003602052604081208054600192906120e9908490612770565b909155505060008181526002602052604080822080546001600160a01b0319166001600160a01b03861690811790915590518392907fddf252ad1be2c89b69c2b068fc378daa952ba7f163c4a11628f55a4df523b3ef908290a45050565b828054612153906127df565b90600052602060002090601f01602090048101928261217557600085556121bb565b82601f1061218e57805160ff19168380011785556121bb565b828001600101855582156121bb579182015b828111156121bb5782518255916020019190600101906121a0565b506121c79291506121cb565b5090565b5b808211156121c757600081556001016121cc565b80356001600160a01b03811681146121f757600080fd5b919050565b60006020828403121561220e57600080fd5b612217826121e0565b9392505050565b6000806040838503121561223157600080fd5b61223a836121e0565b9150612248602084016121e0565b90509250929050565b60008060006060848603121561226657600080fd5b61226f846121e0565b925061227d602085016121e0565b9150604084013590509250925092565b600080600080608085870312156122a357600080fd5b6122ac856121e0565b93506122ba602086016121e0565b925060408501359150606085013567ffffffffffffffff808211156122de57600080fd5b818701915087601f8301126122f257600080fd5b8135818111156123045761230461288b565b604051601f8201601f19908116603f0116810190838211818310171561232c5761232c61288b565b816040528281528a602084870101111561234557600080fd5b82602086016020830137600060208483010152809550505050505092959194509250565b6000806040838503121561237c57600080fd5b612385836121e0565b91506020830135612395816128a1565b809150509250929050565b600080604083850312156123b357600080fd5b6123bc836121e0565b946020939093013593505050565b6000602082840312156123dc57600080fd5b8151612217816128a1565b6000602082840312156123f957600080fd5b8135612217816128af565b60006020828403121561241657600080fd5b8151612217816128af565b60006020828403121561243357600080fd5b5035919050565b60006020828403121561244c57600080fd5b5051919050565b6000806040838503121561246657600080fd5b50508035926020909101359150565b60008060006060848603121561248a57600080fd5b505081359360208301359350604090920135919050565b60008060008060008060c087890312156124ba57600080fd5b505084359660208601359650604086013595606081013595506080810135945060a0013592509050565b600081518084526124fc8160208601602086016127b3565b601f01601f19169290920160200192915050565b600081516125228185602086016127b3565b9290920192915050565b600080845481600182811c91508083168061254857607f831692505b602080841082141561256857634e487b7160e01b86526022600452602486fd5b81801561257c576001811461258d576125ba565b60ff198616895284890196506125ba565b60008b81526020902060005b868110156125b25781548b820152908501908301612599565b505084890196505b5050505050506125ee6125dd6125d783602f60f81b815260010190565b86612510565b64173539b7b760d91b815260050190565b95945050505050565b6001600160a01b038581168252841660208201526040810183905260806060820181905260009061262a908301846124e4565b9695505050505050565b6001600160a01b039687168152602081019590955260408501939093526060840191909152608083015290911660a082015260c00190565b60208152600061221760208301846124e4565b60208082526032908201527f4552433732313a207472616e7366657220746f206e6f6e20455243373231526560408201527131b2b4bb32b91034b6b83632b6b2b73a32b960711b606082015260800190565b6020808252600f908201526e546f6b656e206e6f6e65786973747360881b604082015260600190565b6020808252600e908201526d496e76616c69642072617269747960901b604082015260600190565b6020808252602e908201527f4552433732313a2063616c6c6572206973206e6f7420746f6b656e206f776e6560408201526d1c881b9bdc88185c1c1c9bdd995960921b606082015260800190565b6000821982111561278357612783612849565b500190565b6000826127975761279761285f565b500490565b6000828210156127ae576127ae612849565b500390565b60005b838110156127ce5781810151838201526020016127b6565b83811115610f9c5750506000910152565b600181811c908216806127f357607f821691505b6020821081141561281457634e487b7160e01b600052602260045260246000fd5b50919050565b600060001982141561282e5761282e612849565b5060010190565b6000826128445761284461285f565b500690565b634e487b7160e01b600052601160045260246000fd5b634e487b7160e01b600052601260045260246000fd5b634e487b7160e01b600052603260045260246000fd5b634e487b7160e01b600052604160045260246000fd5b8015158114610f4957600080fd5b6001600160e01b031981168114610f4957600080fdfea2646970667358221220fae028609ba2e6bb3c43af69a73a6ae4fbc8e4ce414df47dc9e095745136971664736f6c63430008070033",
  "linkReferences": {},
  "deployedLinkReferences": {}
}