{
  "_format": "hh-sol-artifact-1",
  "contractName": "Auction",
  "sourceName": "contracts/Auction.sol",
  "abi": [
    {
      "anonymous": false,
      "inputs": [
        {
          "indexed": false,
          "internalType": "uint256",
          "name": "NftId",
          "type": "uint256"
        },
        {
          "indexed": false,
          "internalType": "uint256",
          "name": "NftPrice",
          "type": "uint256"
        },
        {
          "indexed": false,
          "internalType": "uint256",
          "name": "maxBids",
          "type": "uint256"
        },
        {
          "indexed": false,
          "internalType": "uint256",
          "name": "auctionDuration",
          "type": "uint256"
        },
        {
          "indexed": false,
          "internalType": "bool",
          "name": "auctionStatus",
          "type": "bool"
        }
      ],
      "name": "AuctionCreated",
      "type": "event"
    },
    {
      "anonymous": false,
      "inputs": [
        {
          "indexed": false,
          "internalType": "uint256",
          "name": "NftId",
          "type": "uint256"
        },
        {
          "indexed": false,
          "internalType": "uint256",
          "name": "duration",
          "type": "uint256"
        },
        {
          "indexed": false,
          "internalType": "bool",
          "name": "auctionStatus",
          "type": "bool"
        }
      ],
      "name": "AuctionStarted",
      "type": "event"
    },
    {
      "anonymous": false,
      "inputs": [
        {
          "indexed": true,
          "internalType": "address",
          "name": "previousOwner",
          "type": "address"
        },
        {
          "indexed": true,
          "internalType": "address",
          "name": "newOwner",
          "type": "address"
        }
      ],
      "name": "OwnershipTransferred",
      "type": "event"
    },
    {
      "anonymous": false,
      "inputs": [
        {
          "indexed": true,
          "internalType": "bytes32",
          "name": "role",
          "type": "bytes32"
        },
        {
          "indexed": true,
          "internalType": "bytes32",
          "name": "previousAdminRole",
          "type": "bytes32"
        },
        {
          "indexed": true,
          "internalType": "bytes32",
          "name": "newAdminRole",
          "type": "bytes32"
        }
      ],
      "name": "RoleAdminChanged",
      "type": "event"
    },
    {
      "anonymous": false,
      "inputs": [
        {
          "indexed": true,
          "internalType": "bytes32",
          "name": "role",
          "type": "bytes32"
        },
        {
          "indexed": true,
          "internalType": "address",
          "name": "account",
          "type": "address"
        },
        {
          "indexed": true,
          "internalType": "address",
          "name": "sender",
          "type": "address"
        }
      ],
      "name": "RoleGranted",
      "type": "event"
    },
    {
      "anonymous": false,
      "inputs": [
        {
          "indexed": true,
          "internalType": "bytes32",
          "name": "role",
          "type": "bytes32"
        },
        {
          "indexed": true,
          "internalType": "address",
          "name": "account",
          "type": "address"
        },
        {
          "indexed": true,
          "internalType": "address",
          "name": "sender",
          "type": "address"
        }
      ],
      "name": "RoleRevoked",
      "type": "event"
    },
    {
      "anonymous": false,
      "inputs": [
        {
          "indexed": false,
          "internalType": "uint256",
          "name": "NftId",
          "type": "uint256"
        },
        {
          "indexed": false,
          "internalType": "uint256",
          "name": "amount",
          "type": "uint256"
        }
      ],
      "name": "bidAmountTransfer",
      "type": "event"
    },
    {
      "anonymous": false,
      "inputs": [
        {
          "indexed": false,
          "internalType": "uint256",
          "name": "NftId",
          "type": "uint256"
        },
        {
          "indexed": false,
          "internalType": "uint256",
          "name": "amount",
          "type": "uint256"
        }
      ],
      "name": "bidMade",
      "type": "event"
    },
    {
      "inputs": [],
      "name": "DEFAULT_ADMIN_ROLE",
      "outputs": [
        {
          "internalType": "bytes32",
          "name": "",
          "type": "bytes32"
        }
      ],
      "stateMutability": "view",
      "type": "function"
    },
    {
      "inputs": [
        {
          "internalType": "uint256",
          "name": "_nftId",
          "type": "uint256"
        },
        {
          "internalType": "uint256",
          "name": "_nftPrice",
          "type": "uint256"
        },
        {
          "internalType": "uint256",
          "name": "maxBids",
          "type": "uint256"
        }
      ],
      "name": "createNewAuction",
      "outputs": [],
      "stateMutability": "nonpayable",
      "type": "function"
    },
    {
      "inputs": [
        {
          "internalType": "bytes32",
          "name": "role",
          "type": "bytes32"
        }
      ],
      "name": "getRoleAdmin",
      "outputs": [
        {
          "internalType": "bytes32",
          "name": "",
          "type": "bytes32"
        }
      ],
      "stateMutability": "view",
      "type": "function"
    },
    {
      "inputs": [
        {
          "internalType": "bytes32",
          "name": "role",
          "type": "bytes32"
        },
        {
          "internalType": "address",
          "name": "account",
          "type": "address"
        }
      ],
      "name": "grantRole",
      "outputs": [],
      "stateMutability": "nonpayable",
      "type": "function"
    },
    {
      "inputs": [
        {
          "internalType": "bytes32",
          "name": "role",
          "type": "bytes32"
        },
        {
          "internalType": "address",
          "name": "account",
          "type": "address"
        }
      ],
      "name": "hasRole",
      "outputs": [
        {
          "internalType": "bool",
          "name": "",
          "type": "bool"
        }
      ],
      "stateMutability": "view",
      "type": "function"
    },
    {
      "inputs": [
        {
          "internalType": "uint256",
          "name": "_nftId",
          "type": "uint256"
        }
      ],
      "name": "highestBid",
      "outputs": [
        {
          "internalType": "address",
          "name": "",
          "type": "address"
        },
        {
          "internalType": "uint256",
          "name": "",
          "type": "uint256"
        }
      ],
      "stateMutability": "nonpayable",
      "type": "function"
    },
    {
      "inputs": [
        {
          "internalType": "uint256",
          "name": "",
          "type": "uint256"
        },
        {
          "internalType": "address",
          "name": "",
          "type": "address"
        }
      ],
      "name": "isClaimed",
      "outputs": [
        {
          "internalType": "bool",
          "name": "",
          "type": "bool"
        }
      ],
      "stateMutability": "view",
      "type": "function"
    },
    {
      "inputs": [
        {
          "internalType": "uint256",
          "name": "_nftId",
          "type": "uint256"
        },
        {
          "internalType": "uint256",
          "name": "bidAmount",
          "type": "uint256"
        }
      ],
      "name": "makeABid",
      "outputs": [],
      "stateMutability": "nonpayable",
      "type": "function"
    },
    {
      "inputs": [
        {
          "internalType": "uint256",
          "name": "",
          "type": "uint256"
        }
      ],
      "name": "nftAuction",
      "outputs": [
        {
          "internalType": "uint256",
          "name": "NftId",
          "type": "uint256"
        },
        {
          "internalType": "uint256",
          "name": "NftPrice",
          "type": "uint256"
        },
        {
          "internalType": "uint256",
          "name": "maximumBids",
          "type": "uint256"
        },
        {
          "internalType": "uint256",
          "name": "totalBids",
          "type": "uint256"
        },
        {
          "internalType": "uint256",
          "name": "auctionStartTime",
          "type": "uint256"
        },
        {
          "internalType": "uint256",
          "name": "auctionDuration",
          "type": "uint256"
        },
        {
          "internalType": "uint256",
          "name": "highestBid",
          "type": "uint256"
        },
        {
          "internalType": "address",
          "name": "highestBidder",
          "type": "address"
        },
        {
          "internalType": "bool",
          "name": "auctionStatus",
          "type": "bool"
        }
      ],
      "stateMutability": "view",
      "type": "function"
    },
    {
      "inputs": [],
      "name": "owner",
      "outputs": [
        {
          "internalType": "address",
          "name": "",
          "type": "address"
        }
      ],
      "stateMutability": "view",
      "type": "function"
    },
    {
      "inputs": [],
      "name": "renounceOwnership",
      "outputs": [],
      "stateMutability": "nonpayable",
      "type": "function"
    },
    {
      "inputs": [
        {
          "internalType": "bytes32",
          "name": "role",
          "type": "bytes32"
        },
        {
          "internalType": "address",
          "name": "account",
          "type": "address"
        }
      ],
      "name": "renounceRole",
      "outputs": [],
      "stateMutability": "nonpayable",
      "type": "function"
    },
    {
      "inputs": [
        {
          "internalType": "bytes32",
          "name": "role",
          "type": "bytes32"
        },
        {
          "internalType": "address",
          "name": "account",
          "type": "address"
        }
      ],
      "name": "revokeRole",
      "outputs": [],
      "stateMutability": "nonpayable",
      "type": "function"
    },
    {
      "inputs": [
        {
          "internalType": "uint256",
          "name": "_nftId",
          "type": "uint256"
        },
        {
          "internalType": "uint256",
          "name": "startInUnixTime",
          "type": "uint256"
        },
        {
          "internalType": "uint256",
          "name": "durationInSecs",
          "type": "uint256"
        }
      ],
      "name": "startAuction",
      "outputs": [],
      "stateMutability": "nonpayable",
      "type": "function"
    },
    {
      "inputs": [
        {
          "internalType": "bytes4",
          "name": "interfaceId",
          "type": "bytes4"
        }
      ],
      "name": "supportsInterface",
      "outputs": [
        {
          "internalType": "bool",
          "name": "",
          "type": "bool"
        }
      ],
      "stateMutability": "view",
      "type": "function"
    },
    {
      "inputs": [
        {
          "internalType": "uint256",
          "name": "_nftId",
          "type": "uint256"
        }
      ],
      "name": "toggleAuction",
      "outputs": [],
      "stateMutability": "nonpayable",
      "type": "function"
    },
    {
      "inputs": [
        {
          "internalType": "uint256",
          "name": "_nftId",
          "type": "uint256"
        }
      ],
      "name": "transferBidAmount",
      "outputs": [],
      "stateMutability": "payable",
      "type": "function"
    },
    {
      "inputs": [
        {
          "internalType": "address",
          "name": "newOwner",
          "type": "address"
        }
      ],
      "name": "transferOwnership",
      "outputs": [],
      "stateMutability": "nonpayable",
      "type": "function"
    }
  ],
  "bytecode": "0x608060405234801561001057600080fd5b5061001a3361001f565b610071565b600180546001600160a01b038381166001600160a01b0319831681179093556040519116919082907f8be0079c531659141344cd1fd0a4f28419497f9722a3daafe3b4186f6b6457e090600090a35050565b611b46806100806000396000f3fe6080604052600436106101095760003560e01c806391e078bb11610095578063ca0dc78111610064578063ca0dc78114610398578063d2ef0795146103b8578063d547741f146103f3578063f2fde38b14610413578063fcb3700d1461043357600080fd5b806391e078bb14610260578063a217fddf14610280578063b14c63c514610295578063b5fcfcac146102d457600080fd5b806336568abe116100dc57806336568abe146101c357806354b7e7e7146101e3578063715018a6146102035780638da5cb5b1461021857806391d148541461024057600080fd5b806301ffc9a71461010e57806312ba0a4114610143578063248a9ca3146101655780632f2ff15d146101a3575b600080fd5b34801561011a57600080fd5b5061012e610129366004611915565b610446565b60405190151581526020015b60405180910390f35b34801561014f57600080fd5b5061016361015e366004611961565b61047d565b005b34801561017157600080fd5b506101956101803660046118d0565b60009081526020819052604090206001015490565b60405190815260200161013a565b3480156101af57600080fd5b506101636101be3660046118e9565b6105d9565b3480156101cf57600080fd5b506101636101de3660046118e9565b610603565b3480156101ef57600080fd5b506101636101fe3660046118d0565b610681565b34801561020f57600080fd5b50610163610890565b34801561022457600080fd5b506001546040516001600160a01b03909116815260200161013a565b34801561024c57600080fd5b5061012e61025b3660046118e9565b6108a4565b34801561026c57600080fd5b5061016361027b366004611961565b6108cd565b34801561028c57600080fd5b50610195600081565b3480156102a157600080fd5b506102b56102b03660046118d0565b610be1565b604080516001600160a01b03909316835260208301919091520161013a565b3480156102e057600080fd5b506103496102ef3660046118d0565b6002602081905260009182526040909120805460018201549282015460038301546004840154600585015460088601546009909601549496959394929391929091906001600160a01b03811690600160a01b900460ff1689565b60408051998a5260208a0198909852968801959095526060870193909352608086019190915260a085015260c08401526001600160a01b031660e083015215156101008201526101200161013a565b3480156103a457600080fd5b506101636103b336600461193f565b610f4e565b3480156103c457600080fd5b5061012e6103d33660046118e9565b600460209081526000928352604080842090915290825290205460ff1681565b3480156103ff57600080fd5b5061016361040e3660046118e9565b6112f8565b34801561041f57600080fd5b5061016361042e3660046118b5565b61131d565b6101636104413660046118d0565b611396565b60006001600160e01b03198216637965db0b60e01b148061047757506301ffc9a760e01b6001600160e01b03198316145b92915050565b6104856114b3565b60008381526002602052604090206005015480156104ea5760405162461bcd60e51b815260206004820152601e60248201527f4e667420616c7265616479206c697374656420666f722061756374696f6e000060448201526064015b60405180910390fd5b60008481526002602052604090208481556001018390558261052757600084815260026020526040902066038d7ea4c6800060019091015561053c565b60008481526002602052604090206001018390555b8161055c576000848152600260208190526040909120601e910155610572565b6000848152600260208190526040909120018290555b6000848152600260209081526040808320600501548151888152928301879052908201859052606082015260808101919091527fc8d9c04256dd9b713ccf76d3a5aa0e8d835cd0679022ad8684dbbac99e62357b9060a0015b60405180910390a150505050565b6000828152602081905260409020600101546105f48161150d565b6105fe8383611517565b505050565b6001600160a01b03811633146106735760405162461bcd60e51b815260206004820152602f60248201527f416363657373436f6e74726f6c3a2063616e206f6e6c792072656e6f756e636560448201526e103937b632b9903337b91039b2b63360891b60648201526084016104e1565b61067d828261159b565b5050565b6106896114b3565b60008181526002602081815260408084208151610160810183528154815260018201548185015293810154848301526003810154606085015260048101546080850152600581015460a0850152600681018054835181860281018601909452808452919360c0860193929083018282801561072357602002820191906000526020600020905b81548152602001906001019080831161070f575b505050505081526020016007820180548060200260200160405190810160405280929190818152602001828054801561078557602002820191906000526020600020905b81546001600160a01b03168152600190910190602001808311610767575b505050918352505060088201546020808301919091526009909201546001600160a01b0381166040830152600160a01b900460ff1615156060909101528101519091506108145760405162461bcd60e51b815260206004820152601b60248201527f4e6674206e6f74206c697374656420666f722061756374696f6e2e000000000060448201526064016104e1565b600082815260026020908152604080832060098101805460ff60a01b198116600160a01b9182900460ff16801590920217909155600590910154825187815293840152908201929092527fd71d8248bb73c802b1b2145c9db28ce38206a0ae2c1fb4ac9dad3d3c66c9f3299060600160405180910390a1505050565b6108986114b3565b6108a26000611600565b565b6000918252602082815260408084206001600160a01b0393909316845291905290205460ff1690565b6108d56114b3565b60008381526002602081815260408084208151610160810183528154815260018201548185015293810154848301526003810154606085015260048101546080850152600581015460a0850152600681018054835181860281018601909452808452919360c0860193929083018282801561096f57602002820191906000526020600020905b81548152602001906001019080831161095b575b50505050508152602001600782018054806020026020016040519081016040528092919081815260200182805480156109d157602002820191906000526020600020905b81546001600160a01b031681526001909101906020018083116109b3575b505050918352505060088201546020808301919091526009909201546001600160a01b038116604080840191909152600160a01b90910460ff161515606090920191909152600087815260029092529020600501549091508015610a775760405162461bcd60e51b815260206004820152601e60248201527f4e667420616c7265616479206c697374656420666f722061756374696f6e000060448201526064016104e1565b6000826020015111610acb5760405162461bcd60e51b815260206004820152601860248201527f4e6674206e6f742073657420666f722061756374696f6e2e000000000000000060448201526064016104e1565b42841015610b0b5760405162461bcd60e51b815260206004820152600d60248201526c24b73b30b634b2102a34b6b29760991b60448201526064016104e1565b6008831015610b505760405162461bcd60e51b815260206004820152601160248201527024b73b30b634b210323ab930ba34b7b71760791b60448201526064016104e1565b6000858152600260205260409020600401849055610b6e8342611a35565b60008681526002602090815260409182902060058101849055600901805460ff60a01b1916600160a01b1790558151888152908101929092526001908201527fd71d8248bb73c802b1b2145c9db28ce38206a0ae2c1fb4ac9dad3d3c66c9f3299060600160405180910390a15050505050565b600080610bec6114b3565b60008381526002602081815260408084208151610160810183528154815260018201548185015293810154848301526003810154606085015260048101546080850152600581015460a0850152600681018054835181860281018601909452808452919360c08601939290830182828015610c8657602002820191906000526020600020905b815481526020019060010190808311610c72575b5050505050815260200160078201805480602002602001604051908101604052809291908181526020018280548015610ce857602002820191906000526020600020905b81546001600160a01b03168152600190910190602001808311610cca575b5050509183525050600882015460208201526009909101546001600160a01b0381166040830152600160a01b900460ff16151560609091015261014081015190915015610d6c5760405162461bcd60e51b815260206004820152601260248201527120bab1ba34b7b71034b99030b1ba34bb329760711b60448201526064016104e1565b428160a0015110610db85760405162461bcd60e51b815260206004820152601660248201527520bab1ba34b7b7103737ba103cb2ba1032b73232b21760511b60448201526064016104e1565b600084815260026020908152604080832060060180548251818502810185019093528083529192909190830182828015610e1157602002820191906000526020600020905b815481526020019060010190808311610dfd575b50505050509050600060026000878152602001908152602001600020600701805480602002602001604051908101604052809291908181526020018280548015610e8457602002820191906000526020600020905b81546001600160a01b03168152600190910190602001808311610e66575b5050505050905060008060005b8451811015610eed5782858281518110610ead57610ead611ae4565b60200260200101511115610edb57848181518110610ecd57610ecd611ae4565b602002602001015192508091505b80610ee581611ab3565b915050610e91565b506000838281518110610f0257610f02611ae4565b60209081029190910181015160009a8b52600290915260409099206008810184905560090180546001600160a01b0319166001600160a01b038b16179055509697909650945050505050565b610f56611652565b60008281526002602081815260408084208151610160810183528154815260018201548185015293810154848301526003810154606085015260048101546080850152600581015460a0850152600681018054835181860281018601909452808452919360c08601939290830182828015610ff057602002820191906000526020600020905b815481526020019060010190808311610fdc575b505050505081526020016007820180548060200260200160405190810160405280929190818152602001828054801561105257602002820191906000526020600020905b81546001600160a01b03168152600190910190602001808311611034575b505050918352505060088201546020808301919091526009909201546001600160a01b038116604080840191909152600160a01b90910460ff9081161515606090930192909252600087815260038452818120338252845220549183015192935016906110c784670de0b6b3a7640000611a4d565b101561110a5760405162461bcd60e51b81526020600482015260126024820152712134b21020b6b7bab73a1034b9903637bb9760711b60448201526064016104e1565b428260a00151101561114f5760405162461bcd60e51b815260206004820152600e60248201526d20bab1ba34b7b71032b73232b21760911b60448201526064016104e1565b61014082015115156001146111985760405162461bcd60e51b815260206004820152600f60248201526e20bab1ba34b7b7103830bab9b2b21760891b60448201526064016104e1565b8160400151826060015111156111e55760405162461bcd60e51b815260206004820152601260248201527126b0bc34b6bab6903134b2399036b0b2329760711b60448201526064016104e1565b80156112335760405162461bcd60e51b815260206004820152601760248201527f5573657220616c7265616479206d61646520612062696400000000000000000060448201526064016104e1565b600084815260026020908152604080832060068101805460018082018355918652848620018890556007909101805480830182559085528385200180546001600160a01b0319163390811790915588855260038452828520908552909252909120805460ff19168217905560608301516112ac91611a35565b6000858152600260209081526040918290206003019290925580518681529182018590527f6046e1e0857af560a3995d9ce91abe2a34db2a3c0182a95700c7993548e0782591016105cb565b6000828152602081905260409020600101546113138161150d565b6105fe838361159b565b6113256114b3565b6001600160a01b03811661138a5760405162461bcd60e51b815260206004820152602660248201527f4f776e61626c653a206e6577206f776e657220697320746865207a65726f206160448201526564647265737360d01b60648201526084016104e1565b61139381611600565b50565b61139e611652565b6000818152600260205260409020600981015460089091015433916001600160a01b0316908183146114125760405162461bcd60e51b815260206004820152601e60248201527f55736572206973206e6f74207468652041756374696f6e2077696e6e6572000060448201526064016104e1565b8034146114525760405162461bcd60e51b815260206004820152600e60248201526d125b9d985b1a5908105b5bdd5b9d60921b60448201526064016104e1565b60008481526004602090815260408083206001600160a01b0387168452825291829020805460ff1916600117905581518681529081018390527f0bfcfc19dcfe04725946247aaf35acfc9a6f5c6a9d9eb9aa580743a96b90436791016105cb565b6001546001600160a01b031633146108a25760405162461bcd60e51b815260206004820181905260248201527f4f776e61626c653a2063616c6c6572206973206e6f7420746865206f776e657260448201526064016104e1565b6113938133611692565b61152182826108a4565b61067d576000828152602081815260408083206001600160a01b03851684529091529020805460ff191660011790556115573390565b6001600160a01b0316816001600160a01b0316837f2f8788117e7eff1d82e926ec794901d17c78024a50270940304540a733656f0d60405160405180910390a45050565b6115a582826108a4565b1561067d576000828152602081815260408083206001600160a01b0385168085529252808320805460ff1916905551339285917ff6391f5c32d9c69d2a47ea670b442974b53935d1edc7fd64eb21e047a839171b9190a45050565b600180546001600160a01b038381166001600160a01b0319831681179093556040519116919082907f8be0079c531659141344cd1fd0a4f28419497f9722a3daafe3b4186f6b6457e090600090a35050565b33806113935760405162461bcd60e51b815260206004820152600f60248201526e696e76616c6964206164647265737360881b60448201526064016104e1565b61169c82826108a4565b61067d576116b4816001600160a01b031660146116f6565b6116bf8360206116f6565b6040516020016116d092919061198d565b60408051601f198184030181529082905262461bcd60e51b82526104e191600401611a02565b60606000611705836002611a4d565b611710906002611a35565b67ffffffffffffffff81111561172857611728611afa565b6040519080825280601f01601f191660200182016040528015611752576020820181803683370190505b509050600360fc1b8160008151811061176d5761176d611ae4565b60200101906001600160f81b031916908160001a905350600f60fb1b8160018151811061179c5761179c611ae4565b60200101906001600160f81b031916908160001a90535060006117c0846002611a4d565b6117cb906001611a35565b90505b6001811115611843576f181899199a1a9b1b9c1cb0b131b232b360811b85600f16601081106117ff576117ff611ae4565b1a60f81b82828151811061181557611815611ae4565b60200101906001600160f81b031916908160001a90535060049490941c9361183c81611a9c565b90506117ce565b5083156118925760405162461bcd60e51b815260206004820181905260248201527f537472696e67733a20686578206c656e67746820696e73756666696369656e7460448201526064016104e1565b9392505050565b80356001600160a01b03811681146118b057600080fd5b919050565b6000602082840312156118c757600080fd5b61189282611899565b6000602082840312156118e257600080fd5b5035919050565b600080604083850312156118fc57600080fd5b8235915061190c60208401611899565b90509250929050565b60006020828403121561192757600080fd5b81356001600160e01b03198116811461189257600080fd5b6000806040838503121561195257600080fd5b50508035926020909101359150565b60008060006060848603121561197657600080fd5b505081359360208301359350604090920135919050565b7f416363657373436f6e74726f6c3a206163636f756e74200000000000000000008152600083516119c5816017850160208801611a6c565b7001034b99036b4b9b9b4b733903937b6329607d1b60179184019182015283516119f6816028840160208801611a6c565b01602801949350505050565b6020815260008251806020840152611a21816040850160208701611a6c565b601f01601f19169190910160400192915050565b60008219821115611a4857611a48611ace565b500190565b6000816000190483118215151615611a6757611a67611ace565b500290565b60005b83811015611a87578181015183820152602001611a6f565b83811115611a96576000848401525b50505050565b600081611aab57611aab611ace565b506000190190565b6000600019821415611ac757611ac7611ace565b5060010190565b634e487b7160e01b600052601160045260246000fd5b634e487b7160e01b600052603260045260246000fd5b634e487b7160e01b600052604160045260246000fdfea2646970667358221220f59b52715546fa1fa12be7466571dfdc0d1377b765ed5b873ebd2751a9f38d3464736f6c63430008070033",
  "linkReferences": {},
  "deployedLinkReferences": {}
}