{
  "_format": "hh-sol-artifact-1",
  "contractName": "GamingToken",
  "sourceName": "contracts/GamingToken.sol",
  "abi": [
    {
      "inputs": [
        {
          "internalType": "uint256",
          "name": "_requestFee",
          "type": "uint256"
        },
        {
          "internalType": "uint256",
          "name": "_welcomeAmount",
          "type": "uint256"
        },
        {
          "internalType": "uint256",
          "name": "_tokensPerMin",
          "type": "uint256"
        }
      ],
      "stateMutability": "nonpayable",
      "type": "constructor"
    },
    {
      "anonymous": false,
      "inputs": [
        {
          "indexed": true,
          "internalType": "address",
          "name": "owner",
          "type": "address"
        },
        {
          "indexed": true,
          "internalType": "address",
          "name": "spender",
          "type": "address"
        },
        {
          "indexed": false,
          "internalType": "uint256",
          "name": "value",
          "type": "uint256"
        }
      ],
      "name": "Approval",
      "type": "event"
    },
    {
      "anonymous": false,
      "inputs": [
        {
          "indexed": true,
          "internalType": "bytes32",
          "name": "id",
          "type": "bytes32"
        }
      ],
      "name": "ChainlinkCancelled",
      "type": "event"
    },
    {
      "anonymous": false,
      "inputs": [
        {
          "indexed": true,
          "internalType": "bytes32",
          "name": "id",
          "type": "bytes32"
        }
      ],
      "name": "ChainlinkFulfilled",
      "type": "event"
    },
    {
      "anonymous": false,
      "inputs": [
        {
          "indexed": true,
          "internalType": "bytes32",
          "name": "id",
          "type": "bytes32"
        }
      ],
      "name": "ChainlinkRequested",
      "type": "event"
    },
    {
      "anonymous": false,
      "inputs": [
        {
          "indexed": true,
          "internalType": "address",
          "name": "from",
          "type": "address"
        },
        {
          "indexed": true,
          "internalType": "address",
          "name": "to",
          "type": "address"
        }
      ],
      "name": "OwnershipTransferRequested",
      "type": "event"
    },
    {
      "anonymous": false,
      "inputs": [
        {
          "indexed": true,
          "internalType": "address",
          "name": "from",
          "type": "address"
        },
        {
          "indexed": true,
          "internalType": "address",
          "name": "to",
          "type": "address"
        }
      ],
      "name": "OwnershipTransferred",
      "type": "event"
    },
    {
      "anonymous": false,
      "inputs": [
        {
          "indexed": true,
          "internalType": "bytes32",
          "name": "requestId",
          "type": "bytes32"
        },
        {
          "indexed": true,
          "internalType": "bool",
          "name": "value",
          "type": "bool"
        }
      ],
      "name": "RequestValue",
      "type": "event"
    },
    {
      "anonymous": false,
      "inputs": [
        {
          "indexed": true,
          "internalType": "address",
          "name": "from",
          "type": "address"
        },
        {
          "indexed": true,
          "internalType": "address",
          "name": "to",
          "type": "address"
        },
        {
          "indexed": false,
          "internalType": "uint256",
          "name": "value",
          "type": "uint256"
        }
      ],
      "name": "Transfer",
      "type": "event"
    },
    {
      "anonymous": false,
      "inputs": [
        {
          "indexed": false,
          "internalType": "uint256",
          "name": "_nftId",
          "type": "uint256"
        },
        {
          "indexed": false,
          "internalType": "address",
          "name": "user",
          "type": "address"
        },
        {
          "indexed": false,
          "internalType": "uint256",
          "name": "timestamp",
          "type": "uint256"
        },
        {
          "indexed": false,
          "internalType": "bool",
          "name": "stakeOrUnstake",
          "type": "bool"
        }
      ],
      "name": "status",
      "type": "event"
    },
    {
      "inputs": [
        {
          "internalType": "uint256[]",
          "name": "_nftIds",
          "type": "uint256[]"
        }
      ],
      "name": "NftBalances",
      "outputs": [
        {
          "internalType": "uint256",
          "name": "",
          "type": "uint256"
        }
      ],
      "stateMutability": "view",
      "type": "function"
    },
    {
      "inputs": [],
      "name": "acceptOwnership",
      "outputs": [],
      "stateMutability": "nonpayable",
      "type": "function"
    },
    {
      "inputs": [
        {
          "internalType": "address",
          "name": "owner",
          "type": "address"
        },
        {
          "internalType": "address",
          "name": "spender",
          "type": "address"
        }
      ],
      "name": "allowance",
      "outputs": [
        {
          "internalType": "uint256",
          "name": "",
          "type": "uint256"
        }
      ],
      "stateMutability": "view",
      "type": "function"
    },
    {
      "inputs": [
        {
          "internalType": "address",
          "name": "spender",
          "type": "address"
        },
        {
          "internalType": "uint256",
          "name": "amount",
          "type": "uint256"
        }
      ],
      "name": "approve",
      "outputs": [
        {
          "internalType": "bool",
          "name": "",
          "type": "bool"
        }
      ],
      "stateMutability": "nonpayable",
      "type": "function"
    },
    {
      "inputs": [
        {
          "internalType": "address",
          "name": "account",
          "type": "address"
        }
      ],
      "name": "balanceOf",
      "outputs": [
        {
          "internalType": "uint256",
          "name": "",
          "type": "uint256"
        }
      ],
      "stateMutability": "view",
      "type": "function"
    },
    {
      "inputs": [
        {
          "internalType": "uint256",
          "name": "_nftId",
          "type": "uint256"
        },
        {
          "internalType": "string",
          "name": "_user",
          "type": "string"
        }
      ],
      "name": "checkOwnership",
      "outputs": [
        {
          "internalType": "uint256",
          "name": "",
          "type": "uint256"
        }
      ],
      "stateMutability": "payable",
      "type": "function"
    },
    {
      "inputs": [],
      "name": "decimals",
      "outputs": [
        {
          "internalType": "uint8",
          "name": "",
          "type": "uint8"
        }
      ],
      "stateMutability": "view",
      "type": "function"
    },
    {
      "inputs": [
        {
          "internalType": "address",
          "name": "spender",
          "type": "address"
        },
        {
          "internalType": "uint256",
          "name": "subtractedValue",
          "type": "uint256"
        }
      ],
      "name": "decreaseAllowance",
      "outputs": [
        {
          "internalType": "bool",
          "name": "",
          "type": "bool"
        }
      ],
      "stateMutability": "nonpayable",
      "type": "function"
    },
    {
      "inputs": [
        {
          "internalType": "bytes32",
          "name": "_requestId",
          "type": "bytes32"
        },
        {
          "internalType": "bool",
          "name": "_value",
          "type": "bool"
        }
      ],
      "name": "fulfillRequest",
      "outputs": [],
      "stateMutability": "nonpayable",
      "type": "function"
    },
    {
      "inputs": [],
      "name": "getRequestResult",
      "outputs": [
        {
          "internalType": "bool",
          "name": "",
          "type": "bool"
        }
      ],
      "stateMutability": "view",
      "type": "function"
    },
    {
      "inputs": [],
      "name": "getRequestTime",
      "outputs": [
        {
          "internalType": "uint256",
          "name": "",
          "type": "uint256"
        }
      ],
      "stateMutability": "view",
      "type": "function"
    },
    {
      "inputs": [
        {
          "internalType": "address",
          "name": "spender",
          "type": "address"
        },
        {
          "internalType": "uint256",
          "name": "addedValue",
          "type": "uint256"
        }
      ],
      "name": "increaseAllowance",
      "outputs": [
        {
          "internalType": "bool",
          "name": "",
          "type": "bool"
        }
      ],
      "stateMutability": "nonpayable",
      "type": "function"
    },
    {
      "inputs": [],
      "name": "name",
      "outputs": [
        {
          "internalType": "string",
          "name": "",
          "type": "string"
        }
      ],
      "stateMutability": "view",
      "type": "function"
    },
    {
      "inputs": [],
      "name": "owner",
      "outputs": [
        {
          "internalType": "address",
          "name": "",
          "type": "address"
        }
      ],
      "stateMutability": "view",
      "type": "function"
    },
    {
      "inputs": [],
      "name": "requestFee",
      "outputs": [
        {
          "internalType": "uint256",
          "name": "",
          "type": "uint256"
        }
      ],
      "stateMutability": "view",
      "type": "function"
    },
    {
      "inputs": [],
      "name": "stakedNfts",
      "outputs": [
        {
          "internalType": "uint256[]",
          "name": "",
          "type": "uint256[]"
        }
      ],
      "stateMutability": "view",
      "type": "function"
    },
    {
      "inputs": [
        {
          "internalType": "uint256",
          "name": "_nftId",
          "type": "uint256"
        },
        {
          "internalType": "bool",
          "name": "_stakeStatus",
          "type": "bool"
        }
      ],
      "name": "stakeorUnstakeNft",
      "outputs": [],
      "stateMutability": "nonpayable",
      "type": "function"
    },
    {
      "inputs": [],
      "name": "symbol",
      "outputs": [
        {
          "internalType": "string",
          "name": "",
          "type": "string"
        }
      ],
      "stateMutability": "view",
      "type": "function"
    },
    {
      "inputs": [],
      "name": "time",
      "outputs": [
        {
          "internalType": "uint256",
          "name": "",
          "type": "uint256"
        }
      ],
      "stateMutability": "view",
      "type": "function"
    },
    {
      "inputs": [],
      "name": "tokensPerMin",
      "outputs": [
        {
          "internalType": "uint256",
          "name": "",
          "type": "uint256"
        }
      ],
      "stateMutability": "view",
      "type": "function"
    },
    {
      "inputs": [],
      "name": "totalSupply",
      "outputs": [
        {
          "internalType": "uint256",
          "name": "",
          "type": "uint256"
        }
      ],
      "stateMutability": "view",
      "type": "function"
    },
    {
      "inputs": [
        {
          "internalType": "address",
          "name": "to",
          "type": "address"
        },
        {
          "internalType": "uint256",
          "name": "amount",
          "type": "uint256"
        }
      ],
      "name": "transfer",
      "outputs": [
        {
          "internalType": "bool",
          "name": "",
          "type": "bool"
        }
      ],
      "stateMutability": "nonpayable",
      "type": "function"
    },
    {
      "inputs": [
        {
          "internalType": "address",
          "name": "from",
          "type": "address"
        },
        {
          "internalType": "address",
          "name": "to",
          "type": "address"
        },
        {
          "internalType": "uint256",
          "name": "amount",
          "type": "uint256"
        }
      ],
      "name": "transferFrom",
      "outputs": [
        {
          "internalType": "bool",
          "name": "",
          "type": "bool"
        }
      ],
      "stateMutability": "nonpayable",
      "type": "function"
    },
    {
      "inputs": [
        {
          "internalType": "address",
          "name": "to",
          "type": "address"
        }
      ],
      "name": "transferOwnership",
      "outputs": [],
      "stateMutability": "nonpayable",
      "type": "function"
    },
    {
      "inputs": [
        {
          "internalType": "uint256",
          "name": "_nftId",
          "type": "uint256"
        }
      ],
      "name": "viewBalance",
      "outputs": [
        {
          "internalType": "uint256",
          "name": "",
          "type": "uint256"
        }
      ],
      "stateMutability": "view",
      "type": "function"
    },
    {
      "inputs": [],
      "name": "welcomeAmount",
      "outputs": [
        {
          "internalType": "uint256",
          "name": "",
          "type": "uint256"
        }
      ],
      "stateMutability": "view",
      "type": "function"
    },
    {
      "inputs": [
        {
          "internalType": "uint256",
          "name": "_nftId",
          "type": "uint256"
        },
        {
          "internalType": "uint256",
          "name": "_amount",
          "type": "uint256"
        }
      ],
      "name": "withDrawBalance",
      "outputs": [],
      "stateMutability": "nonpayable",
      "type": "function"
    },
    {
      "inputs": [],
      "name": "withdrawChainlink",
      "outputs": [],
      "stateMutability": "nonpayable",
      "type": "function"
    },
    {
      "inputs": [],
      "name": "withdrawMatic",
      "outputs": [],
      "stateMutability": "nonpayable",
      "type": "function"
    }
  ],
  "bytecode": "0x6001600455600d80546001600160a01b03191673326c977e6efc84e512bb9c30f76e30c160ed06fb17905560e0604052603e6080818152906200338060a03980516200005491601791602090910190620002ac565b503480156200006257600080fd5b50604051620033be380380620033be833981016040819052620000859162000352565b604080518082018252600c81526b23b0b6b4b733902a37b5b2b760a11b6020808301919091528251808401909352600283526111d560f21b90830152903380600081620001195760405162461bcd60e51b815260206004820152601860248201527f43616e6e6f7420736574206f776e657220746f207a65726f000000000000000060448201526064015b60405180910390fd5b600680546001600160a01b0319166001600160a01b03848116919091179091558116156200014c576200014c81620001dd565b50508251620001649150600b906020850190620002ac565b5080516200017a90600c906020840190620002ac565b505050620001a273326c977e6efc84e512bb9c30f76e30c160ed06fb6200028a60201b60201c565b600380546001600160a01b0319167340193c8518bb267228fc409a613bdbd8ec5a97b3179055601692909255601491909155601555620003be565b6001600160a01b038116331415620002385760405162461bcd60e51b815260206004820152601760248201527f43616e6e6f74207472616e7366657220746f2073656c66000000000000000000604482015260640162000110565b600780546001600160a01b0319166001600160a01b03838116918217909255600654604051919216907fed8889f560326eb138920d842192f0eb3dd22b4f139c87a2c57538e05bae127890600090a350565b600280546001600160a01b0319166001600160a01b0392909216919091179055565b828054620002ba9062000381565b90600052602060002090601f016020900481019282620002de576000855562000329565b82601f10620002f957805160ff191683800117855562000329565b8280016001018555821562000329579182015b82811115620003295782518255916020019190600101906200030c565b50620003379291506200033b565b5090565b5b808211156200033757600081556001016200033c565b6000806000606084860312156200036857600080fd5b8351925060208401519150604084015190509250925092565b600181811c908216806200039657607f821691505b60208210811415620003b857634e487b7160e01b600052602260045260246000fd5b50919050565b612fb280620003ce6000396000f3fe6080604052600436106101c15760003560e01c8063810074c6116100f7578063b1a8b31611610095578063e25f17bd11610064578063e25f17bd146104bf578063eb2e578b146104d2578063f2fde38b146104e8578063f7060b341461050857600080fd5b8063b1a8b31614610453578063c31282f514610468578063c625d9bf1461048a578063dd62ed3e1461049f57600080fd5b806395d89b41116100d157806395d89b41146103e8578063a457c2d7146103fd578063a67997b31461041d578063a9059cbb1461043357600080fd5b8063810074c61461038b578063853d10b8146103a05780638da5cb5b146103c057600080fd5b806323b872dd1161016457806363f2b2d71161013e57806363f2b2d71461030b5780636933b21a1461032b57806370a082311461034057806379ba50971461037657600080fd5b806323b872dd146102af578063313ce567146102cf57806339509351146102eb57600080fd5b80630bdedafa116101a05780630bdedafa1461024357806316ada5471461026757806318160ddd1461027a5780631bb662501461028f57600080fd5b80623d0b4b146101c657806306fdde03146101e8578063095ea7b314610213575b600080fd5b3480156101d257600080fd5b506101e66101e13660046129f3565b610528565b005b3480156101f457600080fd5b506101fd6107a0565b60405161020a9190612be7565b60405180910390f35b34801561021f57600080fd5b5061023361022e366004612800565b610832565b604051901515815260200161020a565b34801561024f57600080fd5b5061025960145481565b60405190815260200161020a565b34801561027357600080fd5b5042610259565b34801561028657600080fd5b50600a54610259565b34801561029b57600080fd5b506102596102aa366004612923565b61084c565b3480156102bb57600080fd5b506102336102ca3660046127c4565b610916565b3480156102db57600080fd5b506040516012815260200161020a565b3480156102f757600080fd5b50610233610306366004612800565b61093a565b34801561031757600080fd5b5061025961032636600461282a565b61095c565b34801561033757600080fd5b50610259610b49565b34801561034c57600080fd5b5061025961035b366004612776565b6001600160a01b031660009081526008602052604090205490565b34801561038257600080fd5b506101e6610b7c565b34801561039757600080fd5b506101e6610c2a565b3480156103ac57600080fd5b506101e66103bb3660046128f3565b610cc0565b3480156103cc57600080fd5b506006546040516001600160a01b03909116815260200161020a565b3480156103f457600080fd5b506101fd61107b565b34801561040957600080fd5b50610233610418366004612800565b61108a565b34801561042957600080fd5b5061025960155481565b34801561043f57600080fd5b5061023361044e366004612800565b611105565b34801561045f57600080fd5b506101e6611113565b34801561047457600080fd5b5061047d61121e565b60405161020a9190612ba3565b34801561049657600080fd5b5061023361127d565b3480156104ab57600080fd5b506102596104ba366004612791565b6112fb565b6102596104cd366004612955565b611326565b3480156104de57600080fd5b5061025960165481565b3480156104f457600080fd5b506101e6610503366004612776565b6114f5565b34801561051457600080fd5b506101e66105233660046128f3565b611506565b338061054f5760405162461bcd60e51b815260040161054690612bfa565b60405180910390fd5b6001600160a01b038116600090815260126020526040902054603c906105759042612e1f565b11156105935760405162461bcd60e51b815260040161054690612c82565b6001600160a01b0381166000908152601160209081526040808320548352601090915290205460ff168015156001146105de5760405162461bcd60e51b815260040161054690612c23565b806105fb5760405162461bcd60e51b815260040161054690612c23565b6001600160a01b038216600090815260116020908152604080832083905560128252808320839055868352600e8252808320815160608101835281548152600182015493810184905260029091015460ff16151591810191909152906106735760405162461bcd60e51b815260040161054690612c5a565b603c8160200151426106859190612e1f565b61068f9190612d01565b91506014548261069f9190612e00565b6000878152600f60205260409020549092506106bb9083612ce9565b9150818511156107045760405162461bcd60e51b8152602060048201526014602482015273496e73756666696369656e742062616c616e636560601b6044820152606401610546565b6000851161074b5760405162461bcd60e51b8152602060048201526014602482015273416d6f756e742063616e2774206265207a65726f60601b6044820152606401610546565b6000868152600e602052604090204260019091015561076a8583612e1f565b6000878152600f6020526040902055610798846107896012600a612d58565b6107939088612e00565b611612565b505050505050565b6060600b80546107af90612e9c565b80601f01602080910402602001604051908101604052809291908181526020018280546107db90612e9c565b80156108285780601f106107fd57610100808354040283529160200191610828565b820191906000526020600020905b81548152906001019060200180831161080b57829003601f168201915b5050505050905090565b6000336108408185856116d3565b60019150505b92915050565b6000338061086c5760405162461bcd60e51b815260040161054690612bfa565b6000838152600e6020908152604091829020825160608101845281548152600182015492810183905260029091015460ff161515928101929092526108c35760405162461bcd60e51b815260040161054690612c5a565b6000603c8260200151426108d79190612e1f565b6108e19190612d01565b9050601454816108f19190612e00565b6000868152600f602052604090205490915061090d9082612ce9565b95945050505050565b6000336109248582856117f7565b61092f858585611871565b506001949350505050565b60003361084081858561094d83836112fb565b6109579190612ce9565b6116d3565b6000338061097c5760405162461bcd60e51b815260040161054690612bfa565b82600080805b8351811015610a07576000600e60008684815181106109a3576109a3612f42565b6020908102919091018101518252818101929092526040908101600020815160608101835281548152600182015493810184905260029091015460ff1615159181019190915291506109f457600192505b50806109ff81612ed1565b915050610982565b508015610a565760405162461bcd60e51b815260206004820152601b60248201527f6f6e65206f72206d6f7265204e667473206e6f74207374616b656400000000006044820152606401610546565b60005b8351811015610b3e576000600e6000868481518110610a7a57610a7a612f42565b60209081029190910181015182528181019290925260409081016000908120825160608101845281548152600182015494810185905260029091015460ff1615159281019290925290925090603c90610ad39042612e1f565b610add9190612d01565b905060145481610aed9190612e00565b9050600f6000878581518110610b0557610b05612f42565b602002602001015181526020019081526020016000205481610b279190612ce9565b945050508080610b3690612ed1565b915050610a59565b509095945050505050565b600033610b685760405162461bcd60e51b815260040161054690612bfa565b503360009081526012602052604090205490565b6007546001600160a01b03163314610bcf5760405162461bcd60e51b815260206004820152601660248201527526bab9ba10313290383937b837b9b2b21037bbb732b960511b6044820152606401610546565b600680546001600160a01b0319808216339081179093556007805490911690556040516001600160a01b03909116919082907f8be0079c531659141344cd1fd0a4f28419497f9722a3daafe3b4186f6b6457e090600090a350565b610c32611a1c565b604051600090339047908381818185875af1925050503d8060008114610c74576040519150601f19603f3d011682016040523d82523d6000602084013e610c79565b606091505b5050905080610cbd5760405162461bcd60e51b815260206004820152601060248201526f2a3930b739b332b9103330b4b632b21760811b6044820152606401610546565b50565b3380610cde5760405162461bcd60e51b815260040161054690612bfa565b6001600160a01b038116600090815260126020526040902054603c90610d049042612e1f565b1115610d225760405162461bcd60e51b815260040161054690612c82565b6001600160a01b0381166000908152601160209081526040808320548352601090915290205460ff16801515600114610d6d5760405162461bcd60e51b815260040161054690612c23565b6001600160a01b038216600090815260116020908152604080832083905560128252808320839055868352600e8252918290208251606081018452815481526001820154928101929092526002015460ff161515918101919091528315610e9457604081015115610e155760405162461bcd60e51b815260206004820152601260248201527113999d08185b1c9958591e481cdd185ad95960721b6044820152606401610546565b6000858152600e60205260408120868155426001808301919091556002909101805460ff19168715151790556013805491820181559091527f66de8ffda797e3de9c05e8fc57b3bf0ec28a930d40b0d285d93c06501cf6a09001859055610e8f83610e826012600a612d58565b6015546107939190612e00565b611025565b8060400151610eb55760405162461bcd60e51b815260040161054690612c5a565b6000603c826020015142610ec99190612e1f565b610ed39190612d01565b905060145481610ee39190612e00565b6000878152600f6020526040902054909150610eff9082612ce9565b9050601360005b8154811015610fb65781546001108015610f3b575087828281548110610f2e57610f2e612f42565b9060005260206000200154145b15610fa457805b8254811015610fa25782610f57826001612ce9565b81548110610f6757610f67612f42565b9060005260206000200154838281548110610f8457610f84612f42565b60009182526020909120015580610f9a81612ed1565b915050610f42565b505b80610fae81612ed1565b915050610f06565b5080805480610fc757610fc7612f2c565b60019003818190600052602060002001600090559055806013908054610fee9291906126be565b506000878152600e60205260409020600201805460ff19169055611022856110186012600a612d58565b6107939085612e00565b50505b604080518681526001600160a01b03851660208201524281830152851515606082015290517fda0c7dbf387e4659a1113d3667e371af96c9e5ee86d30118fc091ccf17f65c8b9181900360800190a15050505050565b6060600c80546107af90612e9c565b6000338161109882866112fb565b9050838110156110f85760405162461bcd60e51b815260206004820152602560248201527f45524332303a2064656372656173656420616c6c6f77616e63652062656c6f77604482015264207a65726f60d81b6064820152608401610546565b61092f82868684036116d3565b600033610840818585611871565b61111b611a1c565b600d546040516370a0823160e01b81523060048201526001600160a01b039091169063a9059cbb90339083906370a082319060240160206040518083038186803b15801561116857600080fd5b505afa15801561117c573d6000803e3d6000fd5b505050506040513d601f19601f820116820180604052508101906111a0919061293c565b6040516001600160e01b031960e085901b1681526001600160a01b0390921660048301526024820152604401602060405180830381600087803b1580156111e657600080fd5b505af11580156111fa573d6000803e3d6000fd5b505050506040513d601f19601f82011682018060405250810190610cbd91906128d6565b6060611228611a1c565b601380548060200260200160405190810160405280929190818152602001828054801561082857602002820191906000526020600020905b815481526020019060010190808311611260575050505050905090565b60003361129c5760405162461bcd60e51b815260040161054690612bfa565b33600090815260126020526040902054603c906112b99042612e1f565b11156112d75760405162461bcd60e51b815260040161054690612c82565b50336000908152601160209081526040808320548352601090915290205460ff1690565b6001600160a01b03918216600090815260096020908152604080832093909416825291909152205490565b601654600090339034101561137d5760405162461bcd60e51b815260206004820152601b60248201527f4c6573732066656520616d6f756e74207472616e7366657272656400000000006044820152606401610546565b6001600160a01b0381166113a35760405162461bcd60e51b815260040161054690612bfa565b60006113ae82611a71565b905060006113bc8583611a87565b9050806113fa5760405162461bcd60e51b815260206004820152600c60248201526b24b73b30b634b2103ab9b2b960a11b6044820152606401610546565b6001600160a01b03831660009081526012602052604090205415611483576001600160a01b03831660009081526012602052604090205461012c9061143f9042612e1f565b10156114835760405162461bcd60e51b815260206004820152601360248201527254727920616674657220736f6d652074696d6560681b6044820152606401610546565b6000601761149088611b83565b876040516020016114a393929190612a5d565b604051602081830303815290604052905060006114bf82611c88565b6001600160a01b039095166000908152601160209081526040808320889055601290915290204290555092935050505092915050565b6114fd611a1c565b610cbd81611d8c565b60008281526005602052604090205482906001600160a01b0316331461157f5760405162461bcd60e51b815260206004820152602860248201527f536f75726365206d75737420626520746865206f7261636c65206f6620746865604482015267081c995c5d595cdd60c21b6064820152608401610546565b60008181526005602052604080822080546001600160a01b03191690555182917f7cc135e0cebb02c3480ae5d74d377283180a2601f8f644edf7987b009316c63a91a26040518215159084907f43b5db2227a866ad28fd3e8a1384d2a462c4ec9d259865cb5658ab94529ede2790600090a350600091825260106020526040909120805460ff1916911515919091179055565b6001600160a01b0382166116685760405162461bcd60e51b815260206004820152601f60248201527f45524332303a206d696e7420746f20746865207a65726f2061646472657373006044820152606401610546565b80600a600082825461167a9190612ce9565b90915550506001600160a01b0382166000818152600860209081526040808320805486019055518481527fddf252ad1be2c89b69c2b068fc378daa952ba7f163c4a11628f55a4df523b3ef910160405180910390a35050565b6001600160a01b0383166117355760405162461bcd60e51b8152602060048201526024808201527f45524332303a20617070726f76652066726f6d20746865207a65726f206164646044820152637265737360e01b6064820152608401610546565b6001600160a01b0382166117965760405162461bcd60e51b815260206004820152602260248201527f45524332303a20617070726f766520746f20746865207a65726f206164647265604482015261737360f01b6064820152608401610546565b6001600160a01b0383811660008181526009602090815260408083209487168084529482529182902085905590518481527f8c5be1e5ebec7d5bd14f71427d1e84f3dd0314c0f7b2291e5b200ac8c7c3b925910160405180910390a3505050565b600061180384846112fb565b9050600019811461186b578181101561185e5760405162461bcd60e51b815260206004820152601d60248201527f45524332303a20696e73756666696369656e7420616c6c6f77616e63650000006044820152606401610546565b61186b84848484036116d3565b50505050565b6001600160a01b0383166118d55760405162461bcd60e51b815260206004820152602560248201527f45524332303a207472616e736665722066726f6d20746865207a65726f206164604482015264647265737360d81b6064820152608401610546565b6001600160a01b0382166119375760405162461bcd60e51b815260206004820152602360248201527f45524332303a207472616e7366657220746f20746865207a65726f206164647260448201526265737360e81b6064820152608401610546565b6001600160a01b038316600090815260086020526040902054818110156119af5760405162461bcd60e51b815260206004820152602660248201527f45524332303a207472616e7366657220616d6f756e7420657863656564732062604482015265616c616e636560d01b6064820152608401610546565b6001600160a01b0380851660008181526008602052604080822086860390559286168082529083902080548601905591517fddf252ad1be2c89b69c2b068fc378daa952ba7f163c4a11628f55a4df523b3ef90611a0f9086815260200190565b60405180910390a361186b565b6006546001600160a01b03163314611a6f5760405162461bcd60e51b815260206004820152601660248201527527b7363c9031b0b63630b1363290313c9037bbb732b960511b6044820152606401610546565b565b60606108466001600160a01b0383166014611e3c565b805182516000918491849114611aa257600092505050610846565b60005b8251811015611b7757818181518110611ac057611ac0612f42565b602001015160f81c60f81b6001600160f81b031916838281518110611ae757611ae7612f42565b01602001516001600160f81b03191614801590611b545750611b28828281518110611b1457611b14612f42565b01602001516001600160f81b031916611fd7565b6001600160f81b031916611b47848381518110611b1457611b14612f42565b6001600160f81b03191614155b15611b655760009350505050610846565b80611b6f81612ed1565b915050611aa5565b50600195945050505050565b606081611ba75750506040805180820190915260018152600360fc1b602082015290565b8160005b8115611bd15780611bbb81612ed1565b9150611bca9050600a83612d01565b9150611bab565b6000816001600160401b03811115611beb57611beb612f58565b6040519080825280601f01601f191660200182016040528015611c15576020820181803683370190505b5090505b8415611c8057611c2a600183612e1f565b9150611c37600a86612eec565b611c42906030612ce9565b60f81b818381518110611c5757611c57612f42565b60200101906001600160f81b031916908160001a905350611c79600a86612d01565b9450611c19565b949350505050565b600080611cda611ccc6040518060400160405280602081526020017f6331633565393238383038393465623662323764336361653139363730616133815250612026565b30633dc182cd60e21b612043565b60408051808201909152600381526219d95d60ea1b6020820152909150611d039082908561205f565b611d52604051806040016040528060048152602001630e0c2e8d60e31b8152506040518060400160405280600681526020016573746174757360d01b8152508361205f9092919063ffffffff16565b611d85816064611d6b670de0b6b3a76400006001612e00565b611d759190612d01565b611d80906005612e00565b61207d565b9392505050565b6001600160a01b038116331415611de55760405162461bcd60e51b815260206004820152601760248201527f43616e6e6f74207472616e7366657220746f2073656c660000000000000000006044820152606401610546565b600780546001600160a01b0319166001600160a01b03838116918217909255600654604051919216907fed8889f560326eb138920d842192f0eb3dd22b4f139c87a2c57538e05bae127890600090a350565b505050565b60606000611e4b836002612e00565b611e56906002612ce9565b6001600160401b03811115611e6d57611e6d612f58565b6040519080825280601f01601f191660200182016040528015611e97576020820181803683370190505b509050600360fc1b81600081518110611eb257611eb2612f42565b60200101906001600160f81b031916908160001a905350600f60fb1b81600181518110611ee157611ee1612f42565b60200101906001600160f81b031916908160001a9053506000611f05846002612e00565b611f10906001612ce9565b90505b6001811115611f88576f181899199a1a9b1b9c1cb0b131b232b360811b85600f1660108110611f4457611f44612f42565b1a60f81b828281518110611f5a57611f5a612f42565b60200101906001600160f81b031916908160001a90535060049490941c93611f8181612e85565b9050611f13565b508315611d855760405162461bcd60e51b815260206004820181905260248201527f537472696e67733a20686578206c656e67746820696e73756666696369656e746044820152606401610546565b6000606160f81b6001600160f81b03198316108015906120055750603d60f91b6001600160f81b0319831611155b1561202257612019602060f884901c612e36565b60f81b92915050565b5090565b8051600090829061203a5750600092915050565b50506020015190565b61204b61270a565b61205361270a565b61090d81868686612097565b608083015161206e90836120d4565b6080830151611e3790826120d4565b600354600090611d85906001600160a01b031684846120eb565b61209f61270a565b6120af856080015161010061217e565b50509183526001600160a01b031660208301526001600160e01b031916604082015290565b6120e182600383516121e3565b611e3782826122ea565b6004546000906120fc816001612ce9565b600455835160408086015160808701515191516000936320214ca360e11b936121349386938493923092918a91600191602401612b14565b60408051601f198184030181529190526020810180516001600160e01b03166001600160e01b031990931692909217909152905061217486838684612311565b9695505050505050565b60408051808201909152606081526000602082015261219e602083612eec565b156121c6576121ae602083612eec565b6121b9906020612e1f565b6121c39083612ce9565b91505b506020828101829052604080518085526000815290920101905290565b6017816001600160401b0316116122075761186b8360e0600585901b16831761247e565b60ff816001600160401b0316116122435761222d836018611fe0600586901b161761247e565b5061186b836001600160401b03831660016124a3565b61ffff816001600160401b0316116122805761226a836019611fe0600586901b161761247e565b5061186b836001600160401b03831660026124a3565b63ffffffff816001600160401b0316116122bf576122a983601a611fe0600586901b161761247e565b5061186b836001600160401b03831660046124a3565b6122d483601b611fe0600586901b161761247e565b5061186b836001600160401b03831660086124a3565b604080518082019091526060815260006020820152611d85838460000151518485516124c9565b6040516bffffffffffffffffffffffff193060601b1660208201526034810184905260009060540160408051808303601f1901815282825280516020918201206000818152600590925291812080546001600160a01b0319166001600160a01b038a1617905590925082917fb5e6e01e79f91267dc17b4e6314d5d4d03593d2ceee0fbb452b750bd70ea5af99190a2600254604051630200057560e51b81526001600160a01b0390911690634000aea0906123d490889087908790600401612b7c565b602060405180830381600087803b1580156123ee57600080fd5b505af1158015612402573d6000803e3d6000fd5b505050506040513d601f19601f8201168201806040525081019061242691906128d6565b611c805760405162461bcd60e51b815260206004820152602360248201527f756e61626c6520746f207472616e73666572416e6443616c6c20746f206f7261604482015262636c6560e81b6064820152608401610546565b604080518082019091526060815260006020820152611d8583846000015151846125b3565b604080518082019091526060815260006020820152611c8084856000015151858561260f565b60408051808201909152606081526000602082015282518211156124ec57600080fd5b60208501516124fb8386612ce9565b111561252e5761252e8561251e876020015187866125199190612ce9565b612690565b612529906002612e00565b6126a7565b60008086518051876020830101935080888701111561254d5787860182525b505050602084015b6020841061258d578051825261256c602083612ce9565b9150612579602082612ce9565b9050612586602085612e1f565b9350612555565b51815160001960208690036101000a019081169019919091161790525083949350505050565b604080518082019091526060815260006020820152836020015183106125e8576125e884856020015160026125299190612e00565b835180516020858301018481535080851415612605576001810182525b5093949350505050565b60408051808201909152606081526000602082015260208501516126338584612ce9565b1115612647576126478561251e8685612ce9565b6000600161265784610100612d58565b6126619190612e1f565b90508551838682010185831982511617815250805184870111156126855783860181525b509495945050505050565b6000818311156126a1575081610846565b50919050565b81516126b3838361217e565b5061186b83826122ea565b8280548282559060005260206000209081019282156126fe5760005260206000209182015b828111156126fe5782548255916001019190600101906126e3565b50612022929150612745565b6040805160a0810182526000808252602080830182905282840182905260608084018390528451808601909552845283015290608082015290565b5b808211156120225760008155600101612746565b80356001600160a01b038116811461277157600080fd5b919050565b60006020828403121561278857600080fd5b611d858261275a565b600080604083850312156127a457600080fd5b6127ad8361275a565b91506127bb6020840161275a565b90509250929050565b6000806000606084860312156127d957600080fd5b6127e28461275a565b92506127f06020850161275a565b9150604084013590509250925092565b6000806040838503121561281357600080fd5b61281c8361275a565b946020939093013593505050565b6000602080838503121561283d57600080fd5b82356001600160401b038082111561285457600080fd5b818501915085601f83011261286857600080fd5b81358181111561287a5761287a612f58565b8060051b915061288b848301612cb9565b8181528481019084860184860187018a10156128a657600080fd5b600095505b838610156128c95780358352600195909501949186019186016128ab565b5098975050505050505050565b6000602082840312156128e857600080fd5b8151611d8581612f6e565b6000806040838503121561290657600080fd5b82359150602083013561291881612f6e565b809150509250929050565b60006020828403121561293557600080fd5b5035919050565b60006020828403121561294e57600080fd5b5051919050565b6000806040838503121561296857600080fd5b823591506020808401356001600160401b038082111561298757600080fd5b818601915086601f83011261299b57600080fd5b8135818111156129ad576129ad612f58565b6129bf601f8201601f19168501612cb9565b915080825287848285010111156129d557600080fd5b80848401858401376000848284010152508093505050509250929050565b60008060408385031215612a0657600080fd5b50508035926020909101359150565b60008151808452612a2d816020860160208601612e59565b601f01601f19169290920160200192915050565b60008151612a53818560208601612e59565b9290920192915050565b600080855481600182811c915080831680612a7957607f831692505b6020808410821415612a9957634e487b7160e01b86526022600452602486fd5b818015612aad5760018114612abe57612aeb565b60ff19861689528489019650612aeb565b60008c81526020902060005b86811015612ae35781548b820152908501908301612aca565b505084890196505b505050505050612174612b0e612b018388612a41565b602f60f81b815260010190565b85612a41565b6001600160a01b0389811682526020820189905260408201889052861660608201526001600160e01b03198516608082015260a0810184905260c0810183905261010060e08201819052600090612b6d83820185612a15565b9b9a5050505050505050505050565b60018060a01b038416815282602082015260606040820152600061090d6060830184612a15565b6020808252825182820181905260009190848201906040850190845b81811015612bdb57835183529284019291840191600101612bbf565b50909695505050505050565b602081526000611d856020830184612a15565b6020808252600f908201526e496e76616c6964206164647265737360881b604082015260600190565b60208082526019908201527f55736572206973206e6f7420746865204e4654206f776e657200000000000000604082015260600190565b6020808252600e908201526d13999d081b9bdd081cdd185ad95960921b604082015260600190565b6020808252601a908201527f5265717565737420657870697265642c2054727920616761696e000000000000604082015260600190565b604051601f8201601f191681016001600160401b0381118282101715612ce157612ce1612f58565b604052919050565b60008219821115612cfc57612cfc612f00565b500190565b600082612d1057612d10612f16565b500490565b600181815b80851115612d50578160001904821115612d3657612d36612f00565b80851615612d4357918102915b93841c9390800290612d1a565b509250929050565b6000611d858383600082612d6e57506001610846565b81612d7b57506000610846565b8160018114612d915760028114612d9b57612db7565b6001915050610846565b60ff841115612dac57612dac612f00565b50506001821b610846565b5060208310610133831016604e8410600b8410161715612dda575081810a610846565b612de48383612d15565b8060001904821115612df857612df8612f00565b029392505050565b6000816000190483118215151615612e1a57612e1a612f00565b500290565b600082821015612e3157612e31612f00565b500390565b600060ff821660ff841680821015612e5057612e50612f00565b90039392505050565b60005b83811015612e74578181015183820152602001612e5c565b8381111561186b5750506000910152565b600081612e9457612e94612f00565b506000190190565b600181811c90821680612eb057607f821691505b602082108114156126a157634e487b7160e01b600052602260045260246000fd5b6000600019821415612ee557612ee5612f00565b5060010190565b600082612efb57612efb612f16565b500690565b634e487b7160e01b600052601160045260246000fd5b634e487b7160e01b600052601260045260246000fd5b634e487b7160e01b600052603160045260246000fd5b634e487b7160e01b600052603260045260246000fd5b634e487b7160e01b600052604160045260246000fd5b8015158114610cbd57600080fdfea2646970667358221220598ea6696c16081b5090c9f22cbb81f2d1090b1dd623603e0dded096b61cb62364736f6c6343000807003368747470733a2f2f75732d63656e7472616c312d7665726966796f776e65722d32656236312e636c6f756466756e6374696f6e732e6e65742f746573742f",
  "linkReferences": {},
  "deployedLinkReferences": {}
}